C70000112AFL-CIO COPE POLITICAL CONTRIBUTIONS COMMITTEE                                            CUQ+000000000+000000000+000000000+000000000+000000000+000000000+000000000+000000000+000000000+000000000+000000000+000000000+000000000+000000000+000000000+000000000+000000000+000000000+000000000+000000000+00000000000000000
C70004874AFSCME COUNCIL 13                                                                         CUQ+000000000+000000000+000000000+000000000+000000000+000000000+000000000+000000000+000000000+000000000+000000000+000000000+000000000+000000000+000000000+000000000+000000000+000000000+000000000+000000000+00000000000000000
C70005004AFSCME COUNCIL 31 POLITICAL CONTRIBUTION                                                  CUQ+000000000+000000000+000000000+000000000+000000000+000000000+000000000+000000000+000000000+000000000+000000000+000000000+000000000+000000000+000000000+000000000+000000000+000000000+000000000+000000000+00000000000000000
C70000914AMALGAMATED TRANSIT UNION                                                                 CUQ+000000000+000000000+000000000+000000000+000000000+000000000+000000000+000000000+000000000+000000000+000000000+000000000+000000000+000000000+000000000+000000000+000000000+000000000+000000000+000000000+00000000000000000
C70003017AMERICAN ASSOCIATION FOR JUSTICE                                                          CUQ+000000000+000000000+000000000+000000000+000000000+000000000+000000000+000000000+000000000+000000000+000000000+000000000+000000000+000000000+000000000+000000000+000000000+000000000+000000000+000000000+00000000000000000
C70000120AMERICAN FEDERATION OF STATE, COUNTY AND MUNICIPAL EMPLOYEES, AFL-CIO                     CUQ+000000000+000000000+000000000+000000000+000000000+000000000+000000000+000000000+000000000+000000000+000000000+000000000+000000000+000000000+000000000+000000000+000000000+000000000+000000000+000000000+00000000000000000
C70002472AMERICAN FEDERATION OF TEACHERS AFL-CIO                                                   CUQ+000000000+000000000+000000000+000000000+000000000+000000000+000000000+000000000+000000000+000000000+000000000+000000000+000000000+000000000+000000000+000000000+000000000+000000000+000000000+000000000+00000000000000000
C70003686AMERICAN FIRST CREDIT UNION                                                               CUQ+000000000+000000000+000000000+000000000+000000000+000000000+000000000+000000000+000000000+000000000+000000000+000000000+000000000+000000000+000000000+000000000+000000000+000000000+000000000+000000000+00000000000000000
C70001847AMERICAN MEDICAL ASSOCIATION                                                              CUQ+000000000+000000000+000000000+000000000+000000000+000000000+000000000+000000000+000000000+000000000+000000000+000000000+000000000+000000000+000000000+000000000+000000000+000000000+000000000+000000000+00000000000000000
C70004684AMERICAN SOCIETY OF ANESTHESIOLOGISTS                                                     CUQ+000000000+000000000+000000000+000000000+000000000+000000000+000000000+000000000+000000000+000000000+000000000+000000000+000000000+000000000+000000000+000000000+000000000+000000000+000000000+000000000+00000000000000000
C70005335ARIZONA CREDIT UNION LEAGUE                                                               CUQ+000000000+000000000+000000000+000000000+000000000+000000000+000000000+000000000+000000000+000000000+000000000+000000000+000000000+000000000+000000000+000000000+000000000+000000000+000000000+000000000+00000000000000000
C70004056ARKANSAS EDUCATION ASSOCIATION                                                            CUQ+000000000+000000000+000000000+000000000+000000000+000000000+000000000+000000000+000000000+000000000+000000000+000000000+000000000+000000000+000000000+000000000+000000000+000000000+000000000+000000000+00000000000000000
C70005053ASSOCIATION FOR COMMUNITY ORGANIZATIONS FOR REFORM NOW (ACORN)                            CUQ+000000000+000000000+000000000+000000000+000000000+000000000+000000000+000000000+000000000+000000000+000000000+000000000+000000000+000000000+000000000+000000000+000000000+000000000+000000000+000000000+00000000000000000
C70003819BELLO CREDIT UNION                                                                        CUQ+000000000+000000000+000000000+000000000+000000000+000000000+000000000+000000000+000000000+000000000+000000000+000000000+000000000+000000000+000000000+000000000+000000000+000000000+000000000+000000000+00000000000000000
C70004908BROTHERHOOD OF LOCOMOTIVE ENGINEERS AND TRAINMEN                                          CUQ+000000000+000000000+000000000+000000000+000000000+000000000+000000000+000004667+000000000+000000000+000000000+000000000+000000000+000000000+000000000+000000000+000000000+000000000+000000000+000000000+00000000011082011
C70003009BUSINESS COUNCIL OF ALABAMA                                                               CUQ+000000000+000000000+000000000+000000000+000000000+000000000+000000000+000000000+000000000+000000000+000000000+000000000+000000000+000000000+000000000+000000000+000000000+000000000+000000000+000000000+00000000000000000
C70005418CALIFORNIA FEDERATION OF TEACHERS, AFT, AFL-CIO                                           CUQ+000000000+000000000+000000000+000000000+000000000+000000000+000000000+000000000+000000000+000000000+000000000+000000000+000000000+000000000+000000000+000000000+000000000+000000000+000000000+000000000+00000000000000000
C70004791CALIFORNIA NURSES ASSOCIATION/NATIONAL NURSES ORGANIZING COMMITTEE                        CUQ+000000000+000000000+000000000+000000000+000000000+000000000+000000000+000000000+000000000+000000000+000000000+000000000+000000000+000000000+000000000+000000000+000000000+000000000+000000000+000000000+00000000000000000
C70003611CALIFORNIA SCHOOL EMPLOYEES ASSOCIATION                                                   CUQ+000000000+000000000+000000000+000000000+000000000+000000000+000000000+000000000+000000000+000000000+000000000+000000000+000000000+000000000+000000000+000000000+000000000+000000000+000000000+000000000+00000000000000000
C70003199CALIFORNIA STATE COUNCIL OF SERVICE EMPLOYEES                                             CUQ+000000000+000000000+000000000+000000000+000000000+000000000+000000000+000000000+000000000+000000000+000000000+000000000+000000000+000000000+000000000+000000000+000000000+000000000+000000000+000000000+00000000000000000
C70001227CALIFORNIA TEACHERS ASSOCIATION                                                           CUQ+000000000+000000000+000000000+000000000+000000000+000000000+000000000+000000000+000000000+000000000+000000000+000000000+000000000+000000000+000000000+000000000+000000000+000000000+000000000+000000000+00000000000000000
C70004692CARPENTERS DISTRICT COUNCIL OF KANSAS CITY AND VICINITY                                   CUQ+000000000+000000000+000000000+000000000+000000000+000000000+000000000+000000000+000000000+000000000+000000000+000000000+000000000+000000000+000000000+000000000+000000000+000000000+000000000+000000000+00000000000000000
C70004825CFT COPE                                                                                  CUQ+000000000+000000000+000000000+000000000+000000000+000000000+000000000+000000000+000000000+000000000+000000000+000000000+000000000+000000000+000000000+000000000+000000000+000000000+000000000+000000000+00000000000000000
C70004510CHANGE TO WIN                                                                             CUQ+000000000+000000000+000000000+000000000+000000000+000000000+000000000+000000000+000000000+000000000+000000000+000000000+000000000+000000000+000000000+000000000+000000000+000000000+000000000+000000000+00000000012312011
C70004718CHICAGO AND MIDWEST REGIONAL JOINT BOARD UNITE HERE                                       CUQ+000000000+000000000+000000000+000000000+000000000+000000000+000000000+000000000+000000000+000000000+000000000+000000000+000000000+000000000+000000000+000000000+000000000+000000000+000000000+000000000+00000000000000000
C70004163CIVIL SERVICE EMPLOYEES POLITICAL ACTION FUND                                             CUQ+000000000+000000000+000000000+000000000+000000000+000000000+000000000+000000000+000000000+000000000+000000000+000000000+000000000+000000000+000000000+000000000+000000000+000000000+000000000+000000000+00000000000000000
C70000211COMMUNICATION WORKERS OF AMERICA                                                          CUQ+000000000+000000000+000000000+000000000+000000000+000000000+000000000+000000000+000000000+000000000+000000000+000000000+000000000+000000000+000000000+000000000+000000000+000000000+000000000+000000000+00000000000000000
C70005285COMMUNICATIONS WORKERS OF AMERICA                                                         CUQ+000000000+000000000+000000000+000000000+000000000+000000000+000000000+000000000+000000000+000000000+000000000+000000000+000000000+000000000+000000000+000000000+000000000+000000000+000000000+000000000+00000000000000000
C70004627CULINARY WORKERS UNION LOCAL 226                                                          CUQ+000000000+000000000+000000000+000000000+000000000+000000000+000000000+000000000+000000000+000000000+000000000+000000000+000000000+000000000+000000000+000000000+000000000+000000000+000000000+000000000+00000000000000000
C70004445CYPRUS FEDERAL CREDIT UNION                                                               CUQ+000000000+000000000+000000000+000000000+000000000+000000000+000000000+000000000+000000000+000000000+000000000+000000000+000000000+000000000+000000000+000000000+000000000+000000000+000000000+000000000+00000000000000000
C70003389DELAWARE STATE EDUCATION ASSOCIATION INC                                                  CUQ+000000000+000000000+000000000+000000000+000000000+000000000+000000000+000000000+000000000+000000000+000000000+000000000+000000000+000000000+000000000+000000000+000000000+000000000+000000000+000000000+00000000000000000
C70003694DESERET FIRST CREDIT UNION                                                                CUQ+000000000+000000000+000000000+000000000+000000000+000000000+000000000+000000000+000000000+000000000+000000000+000000000+000000000+000000000+000000000+000000000+000000000+000000000+000000000+000000000+00000000000000000
C70001060EDUCATION MINNESOTA                                                                       CUQ+000000000+000000000+000000000+000000000+000000000+000000000+000000000+000000000+000000000+000000000+000000000+000000000+000000000+000000000+000000000+000000000+000000000+000000000+000000000+000000000+00000000000000000
C70004957FLORIDA ALLIANCE OF PLANNED PARENTHOOD AFFILIATES                                         CUQ+000000000+000000000+000000000+000000000+000000000+000000000+000000000+000000000+000000000+000000000+000000000+000000000+000000000+000000000+000000000+000000000+000000000+000000000+000000000+000000000+00000000000000000
C70003553FLORIDA EDUCATION ASSOCIATION                                                             CUQ+000000000+000000000+000000000+000000000+000000000+000000000+000000000+000001064+000000000+000000000+000000000+000000000+000000000+000000000+000000000+000000000+000000000+000000000+000000000+000000000+00000000001312011
C70005327GEORGIA CREDIT UNION LEAGUE                                                               CUQ+000000000+000000000+000000000+000000000+000000000+000000000+000000000+000000000+000000000+000000000+000000000+000000000+000000000+000000000+000000000+000000000+000000000+000000000+000000000+000000000+00000000000000000
C70000278HAWAII GOVERNMENT EMPLOYEES  ASSOCIATION                                                  CUQ+000000000+000000000+000000000+000000000+000000000+000000000+000000000+000000560+000000000+000000000+000000000+000000000+000000000+000000000+000000000+000000000+000000000+000000000+000000000+000000000+00000000003312011
C70005301HAWAII STATE TEACHERS ASSOCIATION POLITICAL ACTION COMMITTEE FUND                         CUQ+000000000+000000000+000000000+000000000+000000000+000000000+000000000+000000000+000000000+000000000+000000000+000000000+000000000+000000000+000000000+000000000+000000000+000000000+000000000+000000000+00000000000000000
C70004569HUMAN RIGHTS CAMPAIGN                                                                     CUQ+000000000+000000000+000000000+000000000+000000000+000000000+000000000+000000000+000000000+000000000+000000000+000000000+000000000+000000000+000000000+000000000+000000000+000000000+000000000+000000000+00000000000000000
C70005236IBEW LOCAL 494                                                                            CUQ+000000000+000000000+000000000+000000000+000000000+000000000+000000000+000000000+000000000+000000000+000000000+000000000+000000000+000000000+000000000+000000000+000000000+000000000+000000000+000000000+00000000000000000
C70003108INTERNATIONAL ASSOCIATION OF FIRE FIGHTERS                                                CUQ+000000000+000000000+000000000+000000000+000000000+000000000+000000000+000000000+000000000+000000000+000000000+000000000+000000000+000000000+000000000+000000000+000000000+000000000+000000000+000000000+00000000000000000
C70001979INTERNATIONAL BROTHERHOOD OF TEAMSTERS                                                    CUQ+000000000+000000000+000000000+000000000+000000000+000000000+000000000+000001115+000000000+000000000+000000000+000000000+000000000+000000000+000000000+000000000+000000000+000000000+000000000+000000000+00000000006302011
C70004783INTERNATIONAL LONSHORE AND WAREHOUSE UNION COAST PRO-RATA COMMITTEE                       CUQ+000000000+000000000+000000000+000000000+000000000+000000000+000000000+000000000+000000000+000000000+000000000+000000000+000000000+000000000+000000000+000000000+000000000+000000000+000000000+000000000+00000000000000000
C70002118INTERNATIONAL UNION OF OPERATING ENGINEERS                                                CUQ+000000000+000000000+000000000+000000000+000000000+000000000+000000000+000000000+000000000+000000000+000000000+000000000+000000000+000000000+000000000+000000000+000000000+000000000+000000000+000000000+00000000000000000
C70005343J  P MORGAN CHASE BANK N A                                                                CUQ+000000000+000000000+000000000+000000000+000000000+000000000+000000000+000000000+000000000+000000000+000000000+000000000+000000000+000000000+000000000+000000000+000000000+000000000+000000000+000000000+00000000000000000
C70005269JORDAN CREDIT UNION                                                                       CUQ+000000000+000000000+000000000+000000000+000000000+000000000+000000000+000000000+000000000+000000000+000000000+000000000+000000000+000000000+000000000+000000000+000000000+000000000+000000000+000000000+00000000000000000
C70003603KENTUCKY EDUCATION ASSOCIATION                                                            CUQ+000000000+000000000+000000000+000000000+000000000+000000000+000000000+000000000+000000000+000000000+000000000+000000000+000000000+000000000+000000000+000000000+000000000+000000000+000000000+000000000+00000000000000000
C70005434KS CREDIT UNION ASSOCIATION                                                               CUQ+000000000+000000000+000000000+000000000+000000000+000000000+000000000+000000000+000000000+000000000+000000000+000000000+000000000+000000000+000000000+000000000+000000000+000000000+000000000+000000000+00000000000000000
C70004817LABORERS LOCAL 341 LIUNA                                                                  CUQ+000000000+000000000+000000000+000000000+000000000+000000000+000000000+000000000+000000000+000000000+000000000+000000000+000000000+000000000+000000000+000000000+000000000+000000000+000000000+000000000+00000000000000000
C70004171LABORERS' INTERNATIONAL UNION OF NORTH AMERICA                                            CUQ+000000000+000000000+000000000+000000000+000000000+000000000+000000000+000000000+000000000+000000000+000000000+000000000+000000000+000000000+000000000+000000000+000000000+000000000+000000000+000000000+00000000000000000
C70005038LABORERS' INTERNATIONAL UNION OF NORTH AMERICA LOCAL #113                                 CUQ+000000000+000000000+000000000+000000000+000000000+000000000+000000000+000000000+000000000+000000000+000000000+000000000+000000000+000000000+000000000+000000000+000000000+000000000+000000000+000000000+00000000000000000
C70004890LABORERS' LOCAL 652                                                                       CUQ+000000000+000000000+000000000+000000000+000000000+000000000+000000000+000000000+000000000+000000000+000000000+000000000+000000000+000000000+000000000+000000000+000000000+000000000+000000000+000000000+00000000000000000
C70005103LABORERS' MID-ATLANTIC ORGANIZING COALITION                                               CUQ+000000000+000000000+000000000+000000000+000000000+000000000+000000000+000000000+000000000+000000000+000000000+000000000+000000000+000000000+000000000+000000000+000000000+000000000+000000000+000000000+00000000000000000
C70004239LOCAL 32BJ S E I U AFL-CIO                                                                CUQ+000000000+000000000+000000000+000000000+000000000+000000000+000000000+000000000+000000000+000000000+000000000+000000000+000000000+000000000+000000000+000000000+000000000+000000000+000000000+000000000+00000000000000000
C70003223LOS ANGELES COUNTY FEDERATION OF LABOR, AFL-CIO                                           CUQ+000000000+000000000+000000000+000000000+000000000+000000000+000000000+000159405+000000000+000000000+000000000+000000000+000000000+000000000+000000000+000000000+000000000+000000000+000000000+000000000+00000000009302011
C70003751MAINE STATE EMPLOYEES ASSOCIATION-SEIU LOCAL 1989                                         CUQ+000000000+000000000+000000000+000000000+000000000+000000000+000000000+000000000+000000000+000000000+000000000+000000000+000000000+000000000+000000000+000000000+000000000+000000000+000000000+000000000+00000000000000000
C70003538MARYLAND STATE TEACHERS ASSN                                                              CUQ+000000000+000000000+000000000+000000000+000000000+000000000+000000000+000000000+000000000+000000000+000000000+000000000+000000000+000000000+000000000+000000000+000000000+000000000+000000000+000000000+00000000000000000
C70002373MASSACHUSETTS TEACHERS ASSOCIATION                                                        CUQ+000000000+000000000+000000000+000000000+000000000+000000000+000000000+000000000+000000000+000000000+000000000+000000000+000000000+000000000+000000000+000000000+000000000+000000000+000000000+000000000+00000000000000000
C70004809MICHIGAN AFSCME COUNCIL 25                                                                CUQ+000000000+000000000+000000000+000000000+000000000+000000000+000000000+000000000+000000000+000000000+000000000+000000000+000000000+000000000+000000000+000000000+000000000+000000000+000000000+000000000+00000000000000000
C70005228MICHIGAN REGIONAL COUNCIL OF CARPENTERS                                                   CUQ+000000000+000000000+000000000+000000000+000000000+000000000+000000000+000000000+000000000+000000000+000000000+000000000+000000000+000000000+000000000+000000000+000000000+000000000+000000000+000000000+00000000000000000
C70004841MINNEAPOLIS REGIONAL LABOR FEDERATION AFL-CIO                                             CUQ+000000000+000000000+000000000+000000000+000000000+000000000+000000000+000000000+000000000+000000000+000000000+000000000+000000000+000000000+000000000+000000000+000000000+000000000+000000000+000000000+00000000000000000
C70003702MOUNTAIN AMERICA CREDIT UNION                                                             CUQ+000000000+000000000+000000000+000000000+000000000+000000000+000000000+000000000+000000000+000000000+000000000+000000000+000000000+000000000+000000000+000000000+000000000+000000000+000000000+000000000+00000000000000000
C70002761NARAL PRO-CHOICE AMERICA                                                                  CUQ+000000000+000000000+000000000+000000000+000000000+000000000+000000000+000000000+000000000+000000000+000000000+000000000+000000000+000000000+000000000+000000000+000000000+000000000+000000000+000000000+00000000000000000
C70005129NARAL PRO-CHOICE MINNESOTA                                                                CUQ+000000000+000000000+000000000+000000000+000000000+000000000+000000000+000000000+000000000+000000000+000000000+000000000+000000000+000000000+000000000+000000000+000000000+000000000+000000000+000000000+00000000000000000
C70005277NATIONAL ASSOCIATION FOR GUN RIGHTS                                                       CUQ+000000000+000000000+000000000+000000000+000000000+000000000+000000000+000000000+000000000+000000000+000000000+000000000+000000000+000000000+000000000+000000000+000000000+000000000+000000000+000000000+00000000000000000
C70001516NATIONAL ASSOCIATION OF LETTER CARRIERS                                                   CUQ+000000000+000000000+000000000+000000000+000000000+000000000+000000000+000000000+000000000+000000000+000000000+000000000+000000000+000000000+000000000+000000000+000000000+000000000+000000000+000000000+00000000000000000
C70002563NATIONAL ASSOCIATION OF REALTORS                                                          CUQ+000000000+000000000+000000000+000000000+000000000+000000000+000000000+000000000+000000000+000000000+000000000+000000000+000000000+000000000+000000000+000000000+000000000+000000000+000000000+000000000+00000000000000000
C70000492NATIONAL EDUCATION ASSOCIATION                                                            CUQ+000000000+000000000+000000000+000000000+000000000+000000000+000000000+000000000+000000000+000000000+000000000+000000000+000000000+000000000+000000000+000000000+000000000+000000000+000000000+000000000+00000000000000000
C70002969NATIONAL FEDERATION OF INDEPENDENT BUSINESS SAVE AMERICA'S FREE ENTERPRISE TRUST          CUQ+000000000+000000000+000000000+000000000+000000000+000000000+000000000+000000000+000000000+000000000+000000000+000000000+000000000+000000000+000000000+000000000+000000000+000000000+000000000+000000000+00000000000000000
C70005376NATIONAL NURSES UNITED                                                                    CUQ+000000000+000000000+000000000+000000000+000000000+000000000+000000000+000000000+000000000+000000000+000000000+000000000+000000000+000000000+000000000+000000000+000000000+000000000+000000000+000000000+00000000000000000
C70000716NATIONAL RIFLE ASSOCIATION INSTITUTE FOR LEGISLATIVE ACTION                               CUQ+000000000+000000000+000000000+000000000+000000000+000000000+000000000+000015542+000000000+000000000+000000000+000000000+000000000+000000000+000000000+000000000+000000000+000000000+000000000+000000000+00000000012312011
C70003298NATIONAL RIGHT TO LIFE COMMITTEE                                                          CUQ+000000000+000000000+000000000+000000000+000000000+000000000+000000000+000161669+000000000+000000000+000000000+000000000+000000000+000000000+000000000+000000000+000000000+000000000+000000000+000000000+00000000012312011
C70005202NEA-ALASKA INC                                                                            CUQ+000000000+000000000+000000000+000000000+000000000+000000000+000000000+000000000+000000000+000000000+000000000+000000000+000000000+000000000+000000000+000000000+000000000+000000000+000000000+000000000+00000000000000000
C70001359NEW YORK STATE PUBLIC EMPLOYEES FEDERATION                                                CUQ+000000000+000000000+000000000+000000000+000000000+000000000+000000000+000000000+000000000+000000000+000000000+000000000+000000000+000000000+000000000+000000000+000000000+000000000+000000000+000000000+00000000000000000
C70002258NEW YORK'S HEALTH AND HUMAN SERVICE UNION 1199/SEIU  AFL-CIO                              CUQ+000000000+000000000+000000000+000000000+000000000+000000000+000000000+000026845+000000000+000000000+000000000+000000000+000000000+000000000+000000000+000000000+000000000+000000000+000000000+000000000+00000000012312011
C70005426NORTH CAROLINA CREDIT UNION LEAGUE                                                        CUQ+000000000+000000000+000000000+000000000+000000000+000000000+000000000+000000000+000000000+000000000+000000000+000000000+000000000+000000000+000000000+000000000+000000000+000000000+000000000+000000000+00000000000000000
C70003363NORTH DAKOTA EDUCATION ASSOCIATION POLITICAL ACTION COMMITTEE FOR EDUCATION (NDEA-PACE)   CUQ+000000000+000000000+000000000+000000000+000000000+000000000+000000000+000000000+000000000+000000000+000000000+000000000+000000000+000000000+000000000+000000000+000000000+000000000+000000000+000000000+00000000000000000
C70003272NORTHERN CALIFORNIA CARPENTERS REGIONAL COUNCIL                                           CUQ+000000000+000000000+000000000+000000000+000000000+000000000+000000000+000000000+000000000+000000000+000000000+000000000+000000000+000000000+000000000+000000000+000000000+000000000+000000000+000000000+00000000000000000
C70005178OHIO CIVIL SERVICE EMPLOYEES ASSN                                                         CUQ+000000000+000000000+000000000+000000000+000000000+000000000+000000000+000000000+000000000+000000000+000000000+000000000+000000000+000000000+000000000+000000000+000000000+000000000+000000000+000000000+00000000000000000
C70005350OHIO CREDIT UNION DEFENSE COALITION                                                       CUQ+000000000+000000000+000000000+000000000+000000000+000000000+000000000+000000000+000000000+000000000+000000000+000000000+000000000+000000000+000000000+000000000+000000000+000000000+000000000+000000000+00000000000000000
C70001292OHIO EDUCATION ASSN                                                                       CUQ+000000000+000000000+000000000+000000000+000000000+000000000+000000000+000000000+000000000+000000000+000000000+000000000+000000000+000000000+000000000+000000000+000000000+000000000+000000000+000000000+00000000000000000
C70004650OPEIU                                                                                     CUQ+000000000+000000000+000000000+000000000+000000000+000000000+000000000+000000000+000000000+000000000+000000000+000000000+000000000+000000000+000000000+000000000+000000000+000000000+000000000+000000000+00000000000000000
C70001946PENNSYLVANIA AFL-CIO                                                                      CUQ+000000000+000000000+000000000+000000000+000000000+000000000+000000000+000000000+000000000+000000000+000000000+000000000+000000000+000000000+000000000+000000000+000000000+000000000+000000000+000000000+00000000000000000
C70004916PENNSYLVANIA CREDIT UNION ASSOCIATION                                                     CUQ+000000000+000000000+000000000+000000000+000000000+000000000+000000000+000000000+000000000+000000000+000000000+000000000+000000000+000000000+000000000+000000000+000000000+000000000+000000000+000000000+00000000000000000
C70004858PENNSYLVANIA JOINT BOARD UNITE HERE                                                       CUQ+000000000+000000000+000000000+000000000+000000000+000000000+000000000+000000000+000000000+000000000+000000000+000000000+000000000+000000000+000000000+000000000+000000000+000000000+000000000+000000000+00000000000000000
C70003314PENNSYLVANIA STATE EDUCATION ASSOCIATION                                                  CUQ+000000000+000000000+000000000+000000000+000000000+000000000+000000000+000000000+000000000+000000000+000000000+000000000+000000000+000000000+000000000+000000000+000000000+000000000+000000000+000000000+00000000000000000
C70002977RIGHT TO LIFE OF MICHIGAN                                                                 CUQ+000000000+000000000+000000000+000000000+000000000+000000000+000000000+000000000+000000000+000000000+000000000+000000000+000000000+000000000+000000000+000000000+000000000+000000000+000000000+000000000+00000000000000000
C70004296SAN MATEO COUNTY CENTRAL LABOR COUNCIL                                                    CUQ+000000000+000000000+000000000+000000000+000000000+000000000+000000000+000000000+000000000+000000000+000000000+000000000+000000000+000000000+000000000+000000000+000000000+000000000+000000000+000000000+00000000000000000
C70005384SEALASKA CORPORATION                                                                      CUQ+000000000+000000000+000000000+000000000+000000000+000000000+000000000+000000000+000000000+000000000+000000000+000000000+000000000+000000000+000000000+000000000+000000000+000000000+000000000+000000000+00000000000000000
C70005145SEIU 1000                                                                                 CUQ+000000000+000000000+000000000+000000000+000000000+000000000+000000000+000000000+000000000+000000000+000000000+000000000+000000000+000000000+000000000+000000000+000000000+000000000+000000000+000000000+00000000000000000
C70004973SEIU HEALTHCARE 1199 NW                                                                   CUQ+000000000+000000000+000000000+000000000+000000000+000000000+000000000+000000000+000000000+000000000+000000000+000000000+000000000+000000000+000000000+000000000+000000000+000000000+000000000+000000000+00000000000000000
C70005368SEIU HEALTHCARE 775 NW QUALITY CARE COMMITTEE                                             CUQ+000000000+000000000+000000000+000000000+000000000+000000000+000000000+000000000+000000000+000000000+000000000+000000000+000000000+000000000+000000000+000000000+000000000+000000000+000000000+000000000+00000000000000000
C70004619SEIU ILLINOIS COUNCIL                                                                     CUQ+000000000+000000000+000000000+000000000+000000000+000000000+000000000+000000000+000000000+000000000+000000000+000000000+000000000+000000000+000000000+000000000+000000000+000000000+000000000+000000000+00000000000000000
C70004726SEIU LOCAL 503 OPEU                                                                       CUQ+000000000+000000000+000000000+000000000+000000000+000000000+000000000+000000000+000000000+000000000+000000000+000000000+000000000+000000000+000000000+000000000+000000000+000000000+000000000+000000000+00000000000000000
C70004965SEIU LOCAL 925                                                                            CUQ+000000000+000000000+000000000+000000000+000000000+000000000+000000000+000007816+000000000+000000000+000000000+000000000+000000000+000000000+000000000+000000000+000000000+000000000+000000000+000000000+00000000001242011
C70004866SEIU OREGON STATE COUNCIL                                                                 CUQ+000000000+000000000+000000000+000000000+000000000+000000000+000000000+000000000+000000000+000000000+000000000+000000000+000000000+000000000+000000000+000000000+000000000+000000000+000000000+000000000+00000000000000000
C70004486SEIU UNITED HEALTH CARE WORKERS WEST                                                      CUQ+000000000+000000000+000000000+000000000+000000000+000000000+000000000+000000000+000000000+000000000+000000000+000000000+000000000+000000000+000000000+000000000+000000000+000000000+000000000+000000000+00000000000000000
C70004023SEIU WA STATE COUNCIL                                                                     CUQ+000000000+000000000+000000000+000000000+000000000+000000000+000000000+000000000+000000000+000000000+000000000+000000000+000000000+000000000+000000000+000000000+000000000+000000000+000000000+000000000+00000000000000000
C70005392SERVICE EMPLOYEE INTERNATIONAL UNION LOCAL 1000                                           CUQ+000000000+000000000+000000000+000000000+000000000+000000000+000000000+000000000+000000000+000000000+000000000+000000000+000000000+000000000+000000000+000000000+000000000+000000000+000000000+000000000+00000000000000000
C70005400SERVICE EMPLOYEE INTERNATIONAL UNION LOCAL 1021                                           CUQ+000000000+000000000+000000000+000000000+000000000+000000000+000000000+000000000+000000000+000000000+000000000+000000000+000000000+000000000+000000000+000000000+000000000+000000000+000000000+000000000+00000000000000000
C70004601SERVICE EMPLOYEES INT'L UNION DISTRICT 1199                                               CUQ+000000000+000000000+000000000+000000000+000000000+000000000+000000000+000000000+000000000+000000000+000000000+000000000+000000000+000000000+000000000+000000000+000000000+000000000+000000000+000000000+00000000000000000
C70003124SERVICE EMPLOYEES INTERNATIONAL UNION                                                     CUQ+000000000+000000000+000000000+000000000+000000000+000000000+000000000+000000000+000000000+000000000+000000000+000000000+000000000+000000000+000000000+000000000+000000000+000000000+000000000+000000000+00000000000000000
C70005475SERVICE EMPLOYEES INTERNATIONAL UNION HEALTH CARE WISCONSIN                               CUQ+000000000+000000000+000000000+000000000+000000000+000000000+000000000+000015994+000000000+000000000+000000000+000000000+000000000+000000000+000000000+000000000+000000000+000000000+000000000+000000000+00000000001312011
C70005459SERVICE EMPLOYEES INTERNATIONAL UNION LOCAL 1877                                          CUQ+000000000+000000000+000000000+000000000+000000000+000000000+000000000+000000000+000000000+000000000+000000000+000000000+000000000+000000000+000000000+000000000+000000000+000000000+000000000+000000000+00000000000000000
C70005319SHEE ATIKA INCORPORATED                                                                   CUQ+000000000+000000000+000000000+000000000+000000000+000000000+000000000+000000000+000000000+000000000+000000000+000000000+000000000+000000000+000000000+000000000+000000000+000000000+000000000+000000000+00000000000000000
C70005210SHEET METAL WORKERS LOCAL 18                                                              CUQ+000000000+000000000+000000000+000000000+000000000+000000000+000000000+000000000+000000000+000000000+000000000+000000000+000000000+000000000+000000000+000000000+000000000+000000000+000000000+000000000+00000000000000000
C70001318SIERRA CLUB                                                                               CUQ+000000000+000000000+000000000+000000000+000000000+000000000+000000000+000000000+000000000+000000000+000000000+000000000+000000000+000000000+000000000+000000000+000000000+000000000+000000000+000000000+00000000000000000
C70005293SOUTHWEST COMMUNITY FEDERAL CREDIT UNION                                                  CUQ+000000000+000000000+000000000+000000000+000000000+000000000+000000000+000000000+000000000+000000000+000000000+000000000+000000000+000000000+000000000+000000000+000000000+000000000+000000000+000000000+00000000000000000
C70004403SOUTHWEST REGIONAL COUNCIL OF CARPENTERS                                                  CUQ+000000000+000000000+000000000+000000000+000000000+000000000+000000000+000000000+000000000+000000000+000000000+000000000+000000000+000000000+000000000+000000000+000000000+000000000+000000000+000000000+00000000000000000
C70004676SUSAN B ANTHONY LIST INC                                                                  CUQ+000000000+000000000+000000000+000000000+000000000+000000000+000000000+000000000+000000000+000000000+000000000+000000000+000000000+000000000+000000000+000000000+000000000+000000000+000000000+000000000+00000000000000000
C70005244TEAMSTERS JOINT COUNCIL 25                                                                CUQ+000000000+000000000+000000000+000000000+000000000+000000000+000000000+000000000+000000000+000000000+000000000+000000000+000000000+000000000+000000000+000000000+000000000+000000000+000000000+000000000+00000000000000000
C70005152UAW NATIONAL CAP                                                                          CUQ+000000000+000000000+000000000+000000000+000000000+000000000+000000000+000000000+000000000+000000000+000000000+000000000+000000000+000000000+000000000+000000000+000000000+000000000+000000000+000000000+00000000000000000
C70004882UAW REGION 1 CAP                                                                          CUQ+000000000+000000000+000000000+000000000+000000000+000000000+000000000+000000000+000000000+000000000+000000000+000000000+000000000+000000000+000000000+000000000+000000000+000000000+000000000+000000000+00000000000000000
C70005160UAW REGION 1A CAP                                                                         CUQ+000000000+000000000+000000000+000000000+000000000+000000000+000000000+000000000+000000000+000000000+000000000+000000000+000000000+000000000+000000000+000000000+000000000+000000000+000000000+000000000+00000000000000000
C70004114UNITE HERE                                                                                CUQ+000000000+000000000+000000000+000000000+000000000+000000000+000000000+000000000+000000000+000000000+000000000+000000000+000000000+000000000+000000000+000000000+000000000+000000000+000000000+000000000+00000000000000000
C70005111UNITE HERE LOCAL 1                                                                        CUQ+000000000+000000000+000000000+000000000+000000000+000000000+000000000+000000000+000000000+000000000+000000000+000000000+000000000+000000000+000000000+000000000+000000000+000000000+000000000+000000000+00000000000000000
C70004999UNITE HERE LOCAL 49                                                                       CUQ+000000000+000000000+000000000+000000000+000000000+000000000+000000000+000000000+000000000+000000000+000000000+000000000+000000000+000000000+000000000+000000000+000000000+000000000+000000000+000000000+00000000000000000
C70004734UNITE HERE LOCAL 5                                                                        CUQ+000000000+000000000+000000000+000000000+000000000+000000000+000000000+000000000+000000000+000000000+000000000+000000000+000000000+000000000+000000000+000000000+000000000+000000000+000000000+000000000+00000000000000000
C70004767UNITE HERE LOCAL 54                                                                       CUQ+000000000+000000000+000000000+000000000+000000000+000000000+000000000+000000000+000000000+000000000+000000000+000000000+000000000+000000000+000000000+000000000+000000000+000000000+000000000+000000000+00000000000000000
C70005020UNITE HERE! SOUTHERN REGIONAL JOINT BOARD                                                 CUQ+000000000+000000000+000000000+000000000+000000000+000000000+000000000+000000000+000000000+000000000+000000000+000000000+000000000+000000000+000000000+000000000+000000000+000000000+000000000+000000000+00000000000000000
C70004361UNITED BROTHERHOOD OF CARPENTERS AND JOINERS OF AMERICA                                   CUQ+000000000+000000000+000000000+000000000+000000000+000000000+000000000+000000000+000000000+000000000+000000000+000000000+000000000+000000000+000000000+000000000+000000000+000000000+000000000+000000000+00000000000000000
C70003645UNITED FOOD & COMMERCIAL WORKERS INTERNATIONAL UNION                                      CUQ+000000000+000000000+000000000+000000000+000000000+000000000+000000000+000000000+000000000+000000000+000000000+000000000+000000000+000000000+000000000+000000000+000000000+000000000+000000000+000000000+00000000000000000
C70005194UNITED FOOD AND COMMERCIAL WORKERS UNION LOCAL 21                                         CUQ+000000000+000000000+000000000+000000000+000000000+000000000+000000000+000000000+000000000+000000000+000000000+000000000+000000000+000000000+000000000+000000000+000000000+000000000+000000000+000000000+00000000000000000
C70005137UNITED FOOD AND COMMERCIAL WORKERS UNION LOCAL 400                                        CUQ+000000000+000000000+000000000+000000000+000000000+000000000+000000000+000017529+000000000+000000000+000000000+000000000+000000000+000000000+000000000+000000000+000000000+000000000+000000000+000000000+00000000001282011
C70005095UNITED NURSES ASSOCIATIONS OF CALIFORNIA/UNION OF HEALTH CARE PROFESSIONALS               CUQ+000000000+000000000+000000000+000000000+000000000+000000000+000000000+000000000+000000000+000000000+000000000+000000000+000000000+000000000+000000000+000000000+000000000+000000000+000000000+000000000+00000000000000000
C70000666UNITED STEELWORKERS OF AMERICA                                                            CUQ+000000000+000000000+000000000+000000000+000000000+000000000+000000000+000000000+000000000+000000000+000000000+000000000+000000000+000000000+000000000+000000000+000000000+000000000+000000000+000000000+00000000000000000
C70001409WISCONSIN EDUCATION ASSOCIATION COUNCIL                                                   CUQ+000000000+000000000+000000000+000000000+000000000+000000000+000000000+000000000+000000000+000000000+000000000+000000000+000000000+000000000+000000000+000000000+000000000+000000000+000000000+000000000+00000000000000000
C70004981WORKING AMERICA                                                                           CUQ+000000000+000000000+000000000+000000000+000000000+000000000+000000000+000000000+000000000+000000000+000000000+000000000+000000000+000000000+000000000+000000000+000000000+000000000+000000000+000000000+00000000000000000
C00505107COMMITTEE TO ELECT DELEGATES TN                                                           DUQ+000011000+000000000+000011000+000000000+000000000+000000000+000000000+000000000+000000000+000000000+000000000+000000000+000000000+000000000+000011000+000000000+000000000+000000000+000000000+000000000+00000000012312011
C00448597DELEGATES FOR RON PAUL FOR VICE PRESIDENT                                                 DUQ+000000000+000000000+000000000+000000000+000000000+000000000+000000000+000000000+000000000+000000000+000000000+000000000+000000000+000000000+000000000+000000000+000000000+000000000+000000000+000000000+00000000000000000
C00443317OBAMA PRINCE GEORGE'S COUNTY DELEGATE COMMITTEE                                           DUQ+000000000+000000000+000000000+000000000+000000000+000000000+000000000+000000000+000000000+000000000+000000000+000000000+000000000+000000000+000000000+000000000+000000000+000000000+000000000+000000000+00000000000000000
C00502708ROMNEY DELEGATE COMMITTEE                                                                 DUT+000005900+000000000+000005800+000000000+000000000+000000000+000000000+000000000+000000000+000000000+000000000+000000000+000000000+000000000+000005900+000000000+000000000+000000000+000000000+000000000+00000000001312012
C30001515ACCOUNTABLE AMERICA INC                                                                   EUQ+000000000+000000000+000000000+000000000+000000000+000000000+000000000+000000000+000000000+000000000+000000000+000000000+000000000+000000000+000000000+000000000+000000000+000000000+000000000+000000000+00000000000000000
C30001648AMERICAN ACTION NETWORK                                                                   EUQ+000000000+000000000+000000000+000000000+000000000+000000000+000000000+000000000+000000000+000000000+000000000+000000000+000000000+000000000+000000000+000000000+000000000+000000000+000000000+000000000+00000000000000000
C30001952AMERICAN CONSERVATIVE UNION                                                               EUQ+000000000+000000000+000000000+000000000+000000000+000000000+000000000+000000000+000000000+000000000+000000000+000000000+000000000+000000000+000000000+000000000+000000000+000000000+000000000+000000000+00000000000000000
C30000798AMERICAN FEDERATION OF STATE, COUNTY AND MUNICIPAL EMPLOYEES, AFL-CIO                     EUQ+000000000+000000000+000000000+000000000+000000000+000000000+000000000+000000000+000000000+000000000+000000000+000000000+000000000+000000000+000000000+000000000+000000000+000000000+000000000+000000000+00000000000000000
C30001028AMERICAN FUTURE FUND                                                                      EUQ+000000000+000000000+000000000+000000000+000000000+000000000+000000000+000000000+000000000+000000000+000000000+000000000+000000000+000000000+000000000+000000000+000000000+000000000+000000000+000000000+00000000000000000
C30001788AMERICAN HOSPITAL ASSOCIATION                                                             EUQ+000000000+000000000+000000000+000000000+000000000+000000000+000000000+000000000+000000000+000000000+000000000+000000000+000000000+000000000+000000000+000000000+000000000+000000000+000000000+000000000+00000000000000000
C30001531AMERICAN PUBLIC POLICY COMMITTEE                                                          EUQ+000000000+000000000+000000000+000000000+000000000+000000000+000000000+000000000+000000000+000000000+000000000+000000000+000000000+000000000+000000000+000000000+000000000+000000000+000000000+000000000+00000000000000000
C30001119AMERICAN RIGHTS AT WORK                                                                   EUQ+000000000+000000000+000000000+000000000+000000000+000000000+000000000+000000000+000000000+000000000+000000000+000000000+000000000+000000000+000000000+000000000+000000000+000000000+000000000+000000000+00000000000000000
C30001903AMERICANS FOR COMMON SENSE SOLUTIONS                                                      EUQ+000000000+000000000+000000000+000000000+000000000+000000000+000000000+000000000+000000000+000000000+000000000+000000000+000000000+000000000+000000000+000000000+000000000+000000000+000000000+000000000+00000000000000000
C30001135AMERICANS FOR JOB SECURITY                                                                EUQ+000000000+000000000+000000000+000000000+000000000+000000000+000000000+000000000+000000000+000000000+000000000+000000000+000000000+000000000+000000000+000000000+000000000+000000000+000000000+000000000+00000000000000000
C30001051AMERICANS FOR PROSPERITY                                                                  EUQ+000000000+000000000+000000000+000000000+000000000+000000000+000000000+000000000+000000000+000000000+000000000+000000000+000000000+000000000+000000000+000000000+000000000+000000000+000000000+000000000+00000000000000000
C30001960AMERICANS FOR PROSPERITY                                                                  EUQ+000000000+000000000+000000000+000000000+000000000+000000000+000000000+000000000+000000000+000000000+000000000+000000000+000000000+000000000+000000000+000000000+000000000+000000000+000000000+000000000+00000000000000000
C30001622AMERICANS FOR WORKING FAMILIES                                                            EUQ+000000000+000000000+000000000+000000000+000000000+000000000+000000000+000000000+000000000+000000000+000000000+000000000+000000000+000000000+000000000+000000000+000000000+000000000+000000000+000000000+00000000000000000
C30001853AMERICANS UNITED FOR SAFE STREETS                                                         EUQ+000000000+000000000+000000000+000000000+000000000+000000000+000000000+000000000+000000000+000000000+000000000+000000000+000000000+000000000+000000000+000000000+000000000+000000000+000000000+000000000+00000000000000000
C30001549ARKANSANS FOR CHANGE                                                                      EUQ+000000000+000000000+000000000+000000000+000000000+000000000+000000000+000000000+000000000+000000000+000000000+000000000+000000000+000000000+000000000+000000000+000000000+000000000+000000000+000000000+00000000000000000
C30001739BLUEGREEN ALLIANCE                                                                        EUQ+000000000+000000000+000000000+000000000+000000000+000000000+000000000+000000000+000000000+000000000+000000000+000000000+000000000+000000000+000000000+000000000+000000000+000000000+000000000+000000000+00000000000000000
C30000145BRING OHIO BACK                                                                           EUQ+000000000+000000000+000000000+000000000+000000000+000000000+000000000+000000000+000000000+000000000+000000000+000000000+000000000+000000000+000000000+000000000+000000000+000000000+000000000+000000000+00000000000000000
C30000814CALIFORNIA NURSES ASSOCIATION/NATIONAL NURSES ORGANIZING COMMITTEE                        EUQ+000000000+000000000+000000000+000000000+000000000+000000000+000000000+000000000+000000000+000000000+000000000+000000000+000000000+000000000+000000000+000000000+000000000+000000000+000000000+000000000+00000000000000000
C30001580CALIFORNIANS FOR A BALANCED BUDGET AND BETTER ECONOMY                                     EUQ+000000000+000000000+000000000+000000000+000000000+000000000+000000000+000000000+000000000+000000000+000000000+000000000+000000000+000000000+000000000+000000000+000000000+000000000+000000000+000000000+00000000000000000
C30000160CAMPAIGN MONEY WATCH                                                                      EUQ+000000000+000000000+000000000+000000000+000000000+000000000+000000000+000000000+000000000+000000000+000000000+000000000+000000000+000000000+000000000+000000000+000000000+000000000+000000000+000000000+00000000000000000
C30001770CARE MEMBERSHIP ORGANIZATION                                                              EUQ+000000000+000000000+000000000+000000000+000000000+000000000+000000000+000000000+000000000+000000000+000000000+000000000+000000000+000000000+000000000+000000000+000000000+000000000+000000000+000000000+00000000000000000
C30001747CENTER FOR INDIVIDUAL FREEDOM                                                             EUQ+000000000+000000000+000000000+000000000+000000000+000000000+000000000+000000000+000000000+000000000+000000000+000000000+000000000+000000000+000000000+000000000+000000000+000000000+000000000+000000000+00000000000000000
C30001259CITIZENS FOR STRENGTH AND SECURITY                                                        EUQ+000000000+000000000+000000000+000000000+000000000+000000000+000000000+000000000+000000000+000000000+000000000+000000000+000000000+000000000+000000000+000000000+000000000+000000000+000000000+000000000+00000000000000000
C30000970COLORADO COUNTS                                                                           EUQ+000000000+000000000+000000000+000000000+000000000+000000000+000000000+000000000+000000000+000000000+000000000+000000000+000000000+000000000+000000000+000000000+000000000+000000000+000000000+000000000+00000000000000000
C30001812COLORADO PROGRESSIVE ACTION                                                               EUQ+000000000+000000000+000000000+000000000+000000000+000000000+000000000+000000000+000000000+000000000+000000000+000000000+000000000+000000000+000000000+000000000+000000000+000000000+000000000+000000000+00000000000000000
C30001697COMMITTEE FOR RESPONSIBLE POLITICS                                                        EUQ+000000000+000000000+000000000+000000000+000000000+000000000+000000000+000000000+000000000+000000000+000000000+000000000+000000000+000000000+000000000+000000000+000000000+000000000+000000000+000000000+00000000000000000
C30001457COMMON SENSE ISSUES INC                                                                   EUQ+000000000+000000000+000000000+000000000+000000000+000000000+000000000+000000000+000000000+000000000+000000000+000000000+000000000+000000000+000000000+000000000+000000000+000000000+000000000+000000000+00000000000000000
C30001895COOK INLET SPORTFISHING CAUCUS                                                            EUQ+000000000+000000000+000000000+000000000+000000000+000000000+000000000+000000000+000000000+000000000+000000000+000000000+000000000+000000000+000000000+000000000+000000000+000000000+000000000+000000000+00000000000000000
C30001655CROSSROADS GRASSROOTS POLICY STRATEGIES                                                   EUQ+000000000+000000000+000000000+000000000+000000000+000000000+000000000+000000000+000000000+000000000+000000000+000000000+000000000+000000000+000000000+000000000+000000000+000000000+000000000+000000000+00000000000000000
C30001713CSS ACTION FUND INC.                                                                      EUQ+000000000+000000000+000000000+000000000+000000000+000000000+000000000+000000000+000000000+000000000+000000000+000000000+000000000+000000000+000000000+000000000+000000000+000000000+000000000+000000000+00000000000000000
C30001556CWA NON-FEDERAL SEPARATE SEGREGATED FUND                                                  EUQ+000000000+000000000+000000000+000000000+000000000+000000000+000000000+000000000+000000000+000000000+000000000+000000000+000000000+000000000+000000000+000000000+000000000+000000000+000000000+000000000+00000000000000000
C30001184Catholics United                                                                          EUQ+000000000+000000000+000000000+000000000+000000000+000000000+000000000+000000000+000000000+000000000+000000000+000000000+000000000+000000000+000000000+000000000+000000000+000000000+000000000+000000000+00000000000000000
C30001911EMERGENCY COMMITTEE FOR ISRAEL                                                            EUQ+000000000+000000000+000000000+000000000+000000000+000000000+000000000+000000000+000000000+000000000+000000000+000000000+000000000+000000000+000000000+000000000+000000000+000000000+000000000+000000000+00000000000000000
C30001523EMILY'S LIST NON-FEDERAL                                                                  EUQ+000000000+000000000+000000000+000000000+000000000+000000000+000000000+000000000+000000000+000000000+000000000+000000000+000000000+000000000+000000000+000000000+000000000+000000000+000000000+000000000+00000000000000000
C30001929ENDING SPENDING INC                                                                       EUQ+000000000+000000000+000000000+000000000+000000000+000000000+000000000+000000000+000000000+000000000+000000000+000000000+000000000+000000000+000000000+000000000+000000000+000000000+000000000+000000000+00000000000000000
C30001846ENTERPRISE FREEDOM ACTION COMMITTEE                                                       EUQ+000000000+000000000+000000000+000000000+000000000+000000000+000000000+000000000+000000000+000000000+000000000+000000000+000000000+000000000+000000000+000000000+000000000+000000000+000000000+000000000+00000000000000000
C30000954ENVIRONMENTAL DEFENSE ACTION FUND                                                         EUQ+000000000+000000000+000000000+000000000+000000000+000000000+000000000+000000000+000000000+000000000+000000000+000000000+000000000+000000000+000000000+000000000+000000000+000000000+000000000+000000000+00000000000000000
C30001838FAITH & FREEDOM COALITION                                                                 EUQ+000000000+000000000+000000000+000000000+000000000+000000000+000000000+000000000+000000000+000000000+000000000+000000000+000000000+000000000+000000000+000000000+000000000+000000000+000000000+000000000+00000000000000000
C30000673FOCUS ON THE FAMILY ACTION                                                                EUQ+000000000+000000000+000000000+000000000+000000000+000000000+000000000+000000000+000000000+000000000+000000000+000000000+000000000+000000000+000000000+000000000+000000000+000000000+000000000+000000000+00000000000000000
C30000756FREEDOM'S WATCH INC                                                                       EUQ+000000000+000000000+000000000+000000000+000000000+000000000+000000000+000000000+000000000+000000000+000000000+000000000+000000000+000000000+000000000+000000000+000000000+000000000+000000000+000000000+00000000000000000
C30001879HISPANIC LEADERSHIP FUND                                                                  EUQ+000000000+000000000+000000000+000000000+000000000+000000000+000000000+000000000+000000000+000000000+000000000+000000000+000000000+000000000+000000000+000000000+000000000+000000000+000000000+000000000+00000000000000000
C30001572INDEPENDENT WOMEN'S VOICE                                                                 EUQ+000000000+000000000+000000000+000000000+000000000+000000000+000000000+000000000+000000000+000000000+000000000+000000000+000000000+000000000+000000000+000000000+000000000+000000000+000000000+000000000+00000000000000000
C30001689JUDICIAL CRISIS NETWORK                                                                   EUQ+000000000+000000000+000000000+000000000+000000000+000000000+000000000+000000000+000000000+000000000+000000000+000000000+000000000+000000000+000000000+000000000+000000000+000000000+000000000+000000000+00000000000000000
C30001796KENNEDY, WILLIAM BEAN JR                                                                  EUQ+000000000+000000000+000000000+000000000+000000000+000000000+000000000+000000000+000000000+000000000+000000000+000000000+000000000+000000000+000000000+000000000+000000000+000000000+000000000+000000000+00000000000000000
C30001499LABORERS' LOCAL 341                                                                       EUQ+000000000+000000000+000000000+000000000+000000000+000000000+000000000+000000000+000000000+000000000+000000000+000000000+000000000+000000000+000000000+000000000+000000000+000000000+000000000+000000000+00000000000000000
C30001267MAJORITY AMERICA POLITICAL ORG                                                            EUQ+000000000+000000000+000000000+000000000+000000000+000000000+000000000+000000000+000000000+000000000+000000000+000000000+000000000+000000000+000000000+000000000+000000000+000000000+000000000+000000000+00000000000000000
C30001820MI FAMILIA VOTA CIVIC PARTICIPATION CAMPAIGN                                              EUQ+000000000+000000000+000000000+000000000+000000000+000000000+000000000+000000000+000000000+000000000+000000000+000000000+000000000+000000000+000000000+000000000+000000000+000000000+000000000+000000000+00000000000000000
C30001507MICHAEL STOLLERY                                                                          EUQ+000000000+000000000+000000000+000000000+000000000+000000000+000000000+000000000+000000000+000000000+000000000+000000000+000000000+000000000+000000000+000000000+000000000+000000000+000000000+000000000+00000000000000000
C30001887MICHIGAN CITIZENS FOR FISCAL RESPONSIBILITY                                               EUQ+000000000+000000000+000000000+000000000+000000000+000000000+000000000+000000000+000000000+000000000+000000000+000000000+000000000+000000000+000000000+000000000+000000000+000000000+000000000+000000000+00000000000000000
C30001762MICHIGAN CREDIT UNION LEAGUE                                                              EUQ+000000000+000000000+000000000+000000000+000000000+000000000+000000000+000000000+000000000+000000000+000000000+000000000+000000000+000000000+000000000+000000000+000000000+000000000+000000000+000000000+00000000000000000
C30001663NATIONAL ASSOCIATION OF MANUFACTURERS                                                     EUQ+000000000+000000000+000000000+000000000+000000000+000000000+000000000+000000000+000000000+000000000+000000000+000000000+000000000+000000000+000000000+000000000+000000000+000000000+000000000+000000000+00000000000000000
C30000848NATIONAL EDUCATION ASSOCIATION                                                            EUQ+000000000+000000000+000000000+000000000+000000000+000000000+000000000+000000000+000000000+000000000+000000000+000000000+000000000+000000000+000000000+000000000+000000000+000000000+000000000+000000000+00000000000000000
C30001317NATIONAL FEDERATION OF INDEPENDENT BUSINESS                                               EUQ+000000000+000000000+000000000+000000000+000000000+000000000+000000000+000000000+000000000+000000000+000000000+000000000+000000000+000000000+000000000+000000000+000000000+000000000+000000000+000000000+00000000000000000
C30001614NEW LEADERSHIP IN COLORADO                                                                EUQ+000000000+000000000+000000000+000000000+000000000+000000000+000000000+000000000+000000000+000000000+000000000+000000000+000000000+000000000+000000000+000000000+000000000+000000000+000000000+000000000+00000000000000000
C30000368OCEAN CHAMPIONS VOTER FUND                                                                EUQ+000000000+000000000+000000000+000000000+000000000+000000000+000000000+000000000+000000000+000000000+000000000+000000000+000000000+000000000+000000000+000000000+000000000+000000000+000000000+000000000+00000000000000000
C30001598PARTNERSHIP FOR AMERICAN'S FUTURE                                                         EUQ+000000000+000000000+000000000+000000000+000000000+000000000+000000000+000000000+000000000+000000000+000000000+000000000+000000000+000000000+000000000+000000000+000000000+000000000+000000000+000000000+00000000000000000
C30001127PATRIOT MAJORITY                                                                          EUQ+000000000+000000000+000000000+000000000+000000000+000000000+000000000+000000000+000000000+000000000+000000000+000000000+000000000+000000000+000000000+000000000+000000000+000000000+000000000+000000000+00000000000000000
C30001705PATRIOT MAJORITY USA FUND                                                                 EUQ+000000000+000000000+000000000+000000000+000000000+000000000+000000000+000000000+000000000+000000000+000000000+000000000+000000000+000000000+000000000+000000000+000000000+000000000+000000000+000000000+00000000000000000
C30001218PATRIOT MAJORITY WEST                                                                     EUQ+000000000+000000000+000000000+000000000+000000000+000000000+000000000+000000000+000000000+000000000+000000000+000000000+000000000+000000000+000000000+000000000+000000000+000000000+000000000+000000000+00000000000000000
C30001945PLANNED PARENTHOOD ACTION FUND INC.                                                       EUQ+000000000+000000000+000000000+000000000+000000000+000000000+000000000+000000000+000000000+000000000+000000000+000000000+000000000+000000000+000000000+000000000+000000000+000000000+000000000+000000000+00000000000000000
C30001234RIGHTCHANGE.COM, INC                                                                      EUQ+000000000+000000000+000000000+000000000+000000000+000000000+000000000+000000000+000000000+000000000+000000000+000000000+000000000+000000000+000000000+000000000+000000000+000000000+000000000+000000000+00000000000000000
C30001937RON VINCENT FOR CONGRESS COMMITTEE, VINCENT J                                             EUQ+000000000+000000000+000000000+000000000+000000000+000000000+000000000+000000000+000000000+000000000+000000000+000000000+000000000+000000000+000000000+000000000+000000000+000000000+000000000+000000000+00000000000000000
C30001606SEND HARRY PACKING                                                                        EUQ+000000000+000000000+000000000+000000000+000000000+000000000+000000000+000000000+000000000+000000000+000000000+000000000+000000000+000000000+000000000+000000000+000000000+000000000+000000000+000000000+00000000000000000
C30001861SET IT STRAIGHT                                                                           EUQ+000000000+000000000+000000000+000000000+000000000+000000000+000000000+000000000+000000000+000000000+000000000+000000000+000000000+000000000+000000000+000000000+000000000+000000000+000000000+000000000+00000000000000000
C30000921SUSAN B ANTHONY LIST INC                                                                  EUQ+000000000+000000000+000000000+000000000+000000000+000000000+000000000+000000000+000000000+000000000+000000000+000000000+000000000+000000000+000000000+000000000+000000000+000000000+000000000+000000000+00000000000000000
C30001671THE 60 PLUS ASSOCIATION                                                                   EUQ+000000000+000000000+000000000+000000000+000000000+000000000+000000000+000000000+000000000+000000000+000000000+000000000+000000000+000000000+000000000+000000000+000000000+000000000+000000000+000000000+00000000000000000
C30001192UNITED FOOD & COMMERCIAL WORKER INTL UNION                                                EUQ+000000000+000000000+000000000+000000000+000000000+000000000+000000000+000000000+000000000+000000000+000000000+000000000+000000000+000000000+000000000+000000000+000000000+000000000+000000000+000000000+00000000000000000
C30001101US CHAMBER OF COMMERCE                                                                    EUQ+000000000+000000000+000000000+000000000+000000000+000000000+000000000+000000000+000000000+000000000+000000000+000000000+000000000+000000000+000000000+000000000+000000000+000000000+000000000+000000000+00000000000000000
C30001275VOTEVETS.ORG ACTION FUND                                                                  EUQ+000000000+000000000+000000000+000000000+000000000+000000000+000000000+000000000+000000000+000000000+000000000+000000000+000000000+000000000+000000000+000000000+000000000+000000000+000000000+000000000+00000000000000000
C30001721WEST VIRGINIA CONSERVATIVE FOUNDATION INC.                                                EUQ+000000000+000000000+000000000+000000000+000000000+000000000+000000000+000000000+000000000+000000000+000000000+000000000+000000000+000000000+000000000+000000000+000000000+000000000+000000000+000000000+00000000000000000
C30001804WEST VIRGINIANS FOR LIFE INC.                                                             EUQ+000000000+000000000+000000000+000000000+000000000+000000000+000000000+000000000+000000000+000000000+000000000+000000000+000000000+000000000+000000000+000000000+000000000+000000000+000000000+000000000+00000000000000000
C30001416WINNING MESSAGE ACTION FUND                                                               EUQ+000000000+000000000+000000000+000000000+000000000+000000000+000000000+000000000+000000000+000000000+000000000+000000000+000000000+000000000+000000000+000000000+000000000+000000000+000000000+000000000+00000000000000000
C30001754WOMEN'S VOICES WOMEN VOTE ACTION FUND                                                     EUQ+000000000+000000000+000000000+000000000+000000000+000000000+000000000+000000000+000000000+000000000+000000000+000000000+000000000+000000000+000000000+000000000+000000000+000000000+000000000+000000000+00000000000000000
C30001564WORKERS FOR A BETTER HAWAII                                                               EUQ+000000000+000000000+000000000+000000000+000000000+000000000+000000000+000000000+000000000+000000000+000000000+000000000+000000000+000000000+000000000+000000000+000000000+000000000+000000000+000000000+00000000000000000
C00469908ALEXANDER AND REHBERG FOR CONGRESS                                                        HJT+000000000+000000000+000000000+000000000+000000000+000000000+000000000+000000000+000000000+000000000+000000000+000000000+000000000+000000000+000000000+000000000+000000000+000000000+000000000+000000000+00000000000000000
C00511410AMERICAN DEMOCRACY FUND                                                                   HJQ+000000000+000000000+000000000+000000000+000000000+000000000+000000000+000000000+000000000+000000000+000000000+000000000+000000000+000000000+000000000+000000000+000000000+000000000+000000000+000000000+00000000000000000
C00512988BARRASSO-PRICE COMMITTEE                                                                  HJQ+000000000+000000000+000000000+000000000+000000000+000000000+000000000+000000000+000000000+000000000+000000000+000000000+000000000+000000000+000000000+000000000+000000000+000000000+000000000+000000000+00000000000000000
C00502260BLUE DOG VICTORY FUND                                                                     HJQ+000000000+000000000+000000000+000000000+000000000+000000000+000000000+000000000+000000000+000000000+000000000+000000000+000000000+000000000+000000000+000000000+000000000+000000000+000000000+000000000+00000000002032012
C00486589BOXER/HALL 2010                                                                           HJT+000000000+000000000+000000000+000000000+000000000+000000000+000000000+000000000+000000000+000000000+000000000+000000000+000000000+000000000+000000000+000000000+000000000+000000000+000000000+000000000+00000000000000000
C00486597BOXER/OBERSTAR 2010                                                                       HJT+000000000+000000000+000000000+000000000+000000000+000000000+000000000+000002309+000002309+000000000+000000000+000000000+000000000+000002309+000000000+000000000+000000000+000000000+000000000+000000000+00000000002282011
C00502211BRALEY BROWN VICTORY FUND                                                                 HJQ+000023611+000000000+000023611+000000000+000000000+000000000+000000000+000023538+000020125+000000000+000000000+000000000+000000000+000000000+000000073+000000000+000000000+000000000+000000000+000000000+00000000012312011
C00502765CANSECO-FARENTHOLD VICTORY COMMITTEE                                                      HJQ+000046300+000000000+000043800+000002500+000000000+000000000+000000000+000044661+000035000+000000000+000000000+000000000+000000000+000000000+000001639+000000000+000000000+000000000+000000000+000000000+00000000012312011
C00487561COLORADO DEMOCRATIC CONGRESSIONAL COMMITTEE                                               HJQ+000000000+000000000+000000000+000000000+000000000+000000000+000000000+000000179+000000000+000000000+000000000+000000000+000000000+000002859+000002681+000000000+000000000+000000000+000000000+000000000+00000000012312011
C00502757DEFEND THE MAJORITY FUND                                                                  HJQ+000000000+000000000+000000000+000000000+000000000+000000000+000000000+000000000+000000000+000000000+000000000+000000000+000000000+000000000+000000000+000000000+000000000+000000000+000000000+000000000+00000000012312011
C00487322FARR - COSTA 2010                                                                         HJT+000000000+000000000+000000000+000000000+000000000+000000000+000000000+000000000+000000000+000000000+000000000+000000000+000000000+000000000+000000000+000000000+000000000+000000000+000000000+000000000+00000000000000000
C00510271FEBRUARY 7TH JFC                                                                          HJQ+000000000+000000000+000000000+000000000+000000000+000000000+000000000+000000000+000000000+000000000+000000000+000000000+000000000+000000000+000000000+000000000+000000000+000000000+000000000+000000000+00000000000000000
C00499889FLORIDA YOUNG GUNS VICTORY FUND ADAMS NUGENT ROSS SOUTHERLAND WEBSTER WEST                HJT+000053778+000000000+000024910+000028000+000000000+000000000+000000000+000053778+000035850+000000000+000000000+000000000+000000000+000000000+000000000+000000000+000000000+000000000+000000000+000000000+00000000001062012
C00493783FRESHMAN AGRICULTURAL REPUBLICAN MEMBERS TRUST AKA FARM TRUST                             HJQ+000256200+000000000+000028950+000227250+000000000+000000000+000000000+000256150+000242598+000000000+000000000+000000000+000000000+000000000+000000050+000000000+000000000+000000000+000000000+000000000+00000000012312011
C00506824FRESHMAN CLASS JFC                                                                        HJQ+000003200+000003200+000000000+000000000+000000000+000000000+000000000+000000000+000000000+000000000+000000000+000000000+000000000+000000000+000003200+000000000+000000000+000000000+000000000+000000000+00000000012312011
C00496083FRESHMAN MAJORITY FUND                                                                    HJT+000046000+000000000+000039500+000006500+000000000+000000000+000000000+000046000+000040129+000000000+000000000+000000000+000000000+000000000+000000000+000000000+000000000+000000000+000000000+000000000+00000000012012011
C00471706FUND FOR EQUALITY                                                                         HJQ+000000000+000000000+000000000+000000000+000000000+000000000+000000000+000000180+000000000+000000000+000000000+000000000+000000000+000000585+000000405+000000000+000000000+000000000+000000000+000000000+00000000012312011
C00500777GARRETT/PAULSEN JOINT COMMITTEE                                                           HJT+000017500+000010000+000000000+000007500+000000000+000000000+000000000+000017500+000000000+000000000+000000000+000000000+000000000+000000000+000000000+000000000+000000000+000000000+000000000+000000000+00000000012162011
C00495663GEORGIA YOUNG GUNS VICTORY FUND (GRAVES, SCOTT, WOODALL)                                  HJT+000045300+000000000+000032050+000013250+000000000+000000000+000000000+000045300+000027811+000000000+000000000+000000000+000000000+000000000+000000000+000000000+000000000+000000000+000000000+000000000+00000000008252011
C00489583GOSAR SCHWEIKERT KELLY VICTORY COMMITTEE                                                  HJT+000000000+000000000+000000000+000000000+000000000+000000000+000000000+000000736+000000691+000000000+000000000+000000000+000000000+000000736+000000000+000000000+000000000+000000000+000000000+000000000+00000000006202011
C00511493GRAVES-WESTMORELAND JFC                                                                   HJQ+000000000+000000000+000000000+000000000+000000000+000000000+000000000+000000000+000000000+000000000+000000000+000000000+000000000+000000000+000000000+000000000+000000000+000000000+000000000+000000000+00000000000000000
C00490748HOOSIER YOUNG GUNS VICTORY COMMITTEE                                                      HJT+000000000+000000000+000000000+000000000+000000000+000000000+000000000+000000000+000000000+000000000+000000000+000000000+000000000+000000000+000000000+000000000+000000000+000000000+000000000+000000000+00000000000000000
C00513002HOYER'S MAJORITY FUND                                                                     HJQ+000000000+000000000+000000000+000000000+000000000+000000000+000000000+000000000+000000000+000000000+000000000+000000000+000000000+000000000+000000000+000000000+000000000+000000000+000000000+000000000+00000000000000000
C00491597ILLINOIS HOUSE REPUBLICAN FRESHMEN                                                        HJT+000002000+000000000+000000000+000002000+000000000+000000000+000000000+000019275+000019275+000000000+000000000+000000000+000000000+000017275+000000000+000000000+000000000+000000000+000000000+000000000+00000000004162011
C00487397LEADERSHIP FOR SEPA                                                                       HJQ+000000000+000000000+000000000+000000000+000000000+000000000+000000000+000000000+000000000+000000000+000000000+000000000+000000000+000000000+000002500+000000000+000000000+000000000+000000000+000000000+00000000012312011
C00483875LOS ANGELES CONSTITUTIONAL COALITION OF BILL CUSHING,DAVID MILLER,JOHN SMITH,STEPHEN SMITHHJT+000000000+000000000+000000000+000000000+000000000+000000000+000000000+000000209+000000000+000000185+000000000+000000000+000000000+000000209+000000000+000000000+000000000+000000000+000000000+000000000+00000000008052011
C00504142LUCAS-ROBERTS VICTORY COMMITTEE; THE                                                      HJQ+000058425+000000000+000040925+000017500+000000000+000000000+000000000+000055925+000053387+000000000+000000000+000000000+000000000+000000000+000002500+000000000+000000000+000000000+000000000+000000000+00000000012312011
C00492884LUCKY 13 JOINT FUNDRAISING COMMITTEE                                                      HJT+000114250+000000000+000009750+000104500+000000000+000000000+000000000+000114250+000104495+000000000+000000000+000000000+000000000+000000000+000000000+000000000+000000000+000000000+000000000+000000000+00000000012312011
C00499186MACKS' JOINT COMMITTEE                                                                    HJT+000000000+000000000+000000000+000000000+000000000+000000000+000000000+000000000+000000000+000000000+000000000+000000000+000000000+000000000+000000000+000000000+000000000+000000000+000000000+000000000+00000000011162011
C00493429MAJORITY MAKERS 2012                                                                      HJQ+000018902+000000000+000018050+000000000+000000000+000000000+000000000+000018873+000013200+000000000+000000000+000000000+000000000+000000000+000000030+000000000+000000000+000000000+000000000+000000000+00000000012312011
C00493791MAJORITY VICTORY FUND (ADAMS, CANSECO, CRAWFORD, GUINTA, RIBBLE)                          HJT+000061200+000000000+000000200+000061000+000000000+000000000+000000000+000061200+000037903+000000000+000000000+000000000+000000000+000000000+000000000+000000000+000000000+000000000+000000000+000000000+00000000011182011
C00489047MCDOWELL-MILES-SCHAUER 2010                                                               HJT+000000000+000000000+000000000+000000000+000000000+000000000+000000000+000000000+000000000+000000000+000000000+000000000+000000000+000000000+000000000+000000000+000000000+000000000+000000000+000000000+00000000000000000
C00498477MCMORRIS RODGERS WALDEN VICTORY COMMITTEE                                                 HJQ+000002405+000001405+000001000+000000000+000000000+000000000+000000000+000002405+000000000+000000000+000000000+000000000+000000000+000000000+000000000+000000000+000000000+000000000+000000000+000000000+00000000009302011
C00502344MIDWEST VICTORY FUND                                                                      HJT+000001595+000000000+000001095+000000500+000000000+000000000+000000000+000001595+000000951+000000000+000000000+000000000+000000000+000000000+000000000+000000000+000000000+000000000+000000000+000000000+00000000012212011
C00489245MOVING FLORIDA FORWARD FUND                                                               HJT+000000000+000000000+000000000+000000000+000000000+000000000+000000000+000000000+000000000+000000000+000000000+000000000+000000000+000000000+000000000+000000000+000000000+000000000+000000000+000000000+00000000001312011
C00503326NEW YORK CONGRESSIONAL VICTORY COMMITTEE 2011                                             HJQ+000437250+000000000+000437250+000000000+000000000+000000000+000000000+000429550+000379264+000000000+000000000+000000000+000000000+000000000+000007700+000000000+000000000+000000000+000000000+000000000+00000000012312011
C00491613OHIO FIVE; THE                                                                            HJT+000000000+000000000+000000000+000000000+000000000+000000000+000000000+000027996+000022671+000000000+000000000+000000000+000000000+000027996+000000000+000000000+000000000+000000000+000000000+000000000+00000000006302011
C00495242PA + 5 COMMITTEE                                                                          HJQ+000026500+000000000+000001500+000025000+000000000+000000000+000000000+000024000+000020678+000000000+000000000+000000000+000000000+000000000+000002500+000000000+000000000+000000000+000000000+000000000+00000000012312011
C00497156PATRIOT DAY 2011                                                                          HJQ+000080500+000000000+000001500+000079000+000000000+000000000+000000000+000072767+000066052+000000000+000000000+000000000+000000000+000000000+000007734+000000000+000000000+000000000+000000000+000000000+00000000012312011
C00502252PATRIOT DAY II 2011                                                                       HJQ+000123500+000000000+000010500+000113000+000000000+000000000+000000000+000086545+000086509+000000000+000000000+000000000+000000000+000000000+000036955+000000000+000000000+000000000+000000000+000000000+00000000012312011
C00511519PATRIOT DAY III                                                                           HJQ+000000000+000000000+000000000+000000000+000000000+000000000+000000000+000000000+000000000+000000000+000000000+000000000+000000000+000000000+000000000+000000000+000000000+000000000+000000000+000000000+00000000000000000
C00488163PETERS-SCHAUER 2010                                                                       HJT+000000000+000000000+000000000+000000000+000000000+000000000+000000000+000000000+000000000+000000000+000000000+000000000+000000000+000000000+000000000+000000000+000000000+000000000+000000000+000000000+00000000001302011
C00496844PETRI-RIBBLE INVITATIONAL                                                                 HJQ+000022439+000007439+000002500+000012500+000000000+000000000+000000000+000022439+000000000+000000000+000000000+000000000+000000000+000000000+000000000+000000000+000000000+000000000+000000000+000000000+00000000012312011
C00491407PROSPERITY FOR PENNSYLVANIA                                                               HJT+000001500+000000000+000000500+000001000+000000000+000000000+000000000+000004482+000000000+000000000+000000000+000000000+000000000+000002982+000000000+000000000+000000000+000000000+000000000+000000000+00000000006302011
C00496562SECURITY FOR AMERICA FUND                                                                 HJT+000031500+000000000+000000000+000031500+000000000+000000000+000000000+000031500+000028870+000000000+000000000+000000000+000000000+000000000+000000000+000000000+000000000+000000000+000000000+000000000+00000000009302011
C00498386SECURITY FOR AMERICA FUND II                                                              HJQ+000034500+000000000+000000000+000034500+000000000+000000000+000000000+000032406+000030000+000000000+000000000+000000000+000000000+000000000+000002094+000000000+000000000+000000000+000000000+000000000+00000000012312011
C00501759SECURITY FOR AMERICA FUND III                                                             HJQ+000032000+000000000+000000000+000032000+000000000+000000000+000000000+000032000+000027613+000000000+000000000+000000000+000000000+000000000+000000000+000000000+000000000+000000000+000000000+000000000+00000000012312011
C00502278SECURITY FOR AMERICA FUND IV                                                              HJQ+000018000+000000000+000000000+000018000+000000000+000000000+000000000+000018000+000015604+000000000+000000000+000000000+000000000+000000000+000000000+000000000+000000000+000000000+000000000+000000000+00000000012312011
C00504514SECURITY FOR AMERICA FUND V                                                               HJQ+000035000+000000000+000001500+000033500+000000000+000000000+000000000+000035000+000032299+000000000+000000000+000000000+000000000+000000000+000000000+000000000+000000000+000000000+000000000+000000000+00000000012312011
C00505289SECURITY FOR AMERICA FUND VI                                                              HJQ+000018866+000000000+000000000+000018866+000000000+000000000+000000000+000018866+000016390+000000000+000000000+000000000+000000000+000000000+000000000+000000000+000000000+000000000+000000000+000000000+00000000012312011
C00511030SECURITY FOR AMERICA FUND VII                                                             HJQ+000000000+000000000+000000000+000000000+000000000+000000000+000000000+000000000+000000000+000000000+000000000+000000000+000000000+000000000+000000000+000000000+000000000+000000000+000000000+000000000+00000000000000000
C00494252SIMPSON-LABRADOR VICTORY FUND                                                             HJQ+000000000+000000000+000000000+000000000+000000000+000000000+000000000+000000000+000000000+000000000+000000000+000000000+000000000+000000000+000000000+000000000+000000000+000000000+000000000+000000000+00000000000000000
C00411348SISTER-ACT COMMITTEE                                                                      HJQ+000015476+000000000+000009375+000006000+000000000+000000000+000000000+000012589+000000000+000000000+000000000+000000000+000000000+000000106+000002993+000000000+000000000+000000000+000000000+000000000+00000000012312011
C00499871SOUTH CAROLINA YOUNG GUNS VICTORY FUND DUNCAN GOWDY MULVANEY SCOTT                        HJT+000063279+000000000+000049410+000013000+000000000+000000000+000000000+000063279+000043583+000000000+000000000+000000000+000000000+000000000+000000000+000000000+000000000+000000000+000000000+000000000+00000000012212011
C00455774SOUTHEASTERN PENNSYLVANIA VICTORY FUND                                                    HJA+000000000+000000000+000000000+000000000+000000000+000000000+000000000+000000000+000000000+000000000+000000000+000000000+000000000+000000000+000000000+000000000+000000000+000000000+000000000+000000000+00000000000000000
C00493817TEAM 2012                                                                                 HJT+000062900+000000000+000000000+000062900+000000000+000000000+000000000+000062900+000055700+000000000+000000000+000000000+000000000+000000000+000000000+000000000+000000000+000000000+000000000+000000000+00000000012312011
C00505313TEXAS YOUNG GUNS VICTORY FUND (CANSECO, FARENTHOLD, FLORES)                               HJT+000018100+000000000+000011600+000006500+000000000+000000000+000000000+000018100+000006503+000000000+000000000+000000000+000000000+000000000+000000000+000000000+000000000+000000000+000000000+000000000+00000000002102012
C00494351WHITFIELD LATOURETTE COMMITTEE                                                            HJT+000013524+000013524+000000000+000000000+000000000+000000000+000000000+000013524+000000000+000000000+000000000+000000000+000000000+000000000+000000000+000000000+000000000+000000000+000000000+000000000+00000000012312011
C00489500WISCONSIN VICTORY FUND                                                                    HJT+000000000+000000000+000000000+000000000+000000000+000000000+000000000+000000000+000000000+000000000+000000000+000000000+000000000+000000000+000000000+000000000+000000000+000000000+000000000+000000000+00000000000000000
C00484915COMMITTEE TO ELECT DAVID (1TERM) MCKINLEY II; THE                                         HUA+000000000+000000000+000000000+000000000+000000000+000000000+000000000+000000000+000000000+000000000+000000000+000000000+000000000+000000000+000000000+000000000+000000000+000000000+000000000+000000000+00000000000000000
C00468330VISION 2009                                                                               IAQ+000000000+000000000+000000000+000000000+000000000+000000000+000000000+000000000+000000000+000000000+000000000+000000000+000000000+000000000+000000000+000000000+000000000+000000000+000000000+000000000+00000000000000000
C004560202012 DEMOCRATIC PRESIDENTIAL CONVENTION FUND SUPER PAC                                    IBQ+000000000+000000000+000000000+000000000+000000000+000000000+000000000+000000000+000000000+000000000+000000000+000000000+000000000+000000000+000000000+000000000+000000000+000000000+000000000+000000000+00000000012312011
C004565742012 REPUBLICAN PRESIDENTIAL CONVENTION FUND SUPER PAC                                    IBQ+000000000+000000000+000000000+000000000+000000000+000000000+000000000+000000000+000000000+000000000+000000000+000000000+000000000+000000000+000000000+000000000+000000000+000000000+000000000+000000000+00000000012312011
C00484287AFL-CIO WORKERS' VOICES PAC                                                               IBQ+003706498+000000000+003706370+000000000+000000000+000000000+000000000+000650087+000000000+000000000+000000000+000000000+000000000+000009064+003065475+000000000+000000000+000000000+000000000+000000000+00000000012312011
C00456111AMERICAN AIRLINES SHAREHOLDERS SUPER PAC                                                  IBQ+000000000+000000000+000000000+000000000+000000000+000000000+000000000+000000000+000000000+000000000+000000000+000000000+000000000+000000000+000000000+000000000+000000000+000000000+000000000+000000000+00000000012312011
C00488338AMERICAN DENTAL ASSOCIATION INDEPENDENT EXPENDITURES COMMITTEE                            IBQ+000000018+000000000+000000000+000000000+000000000+000000000+000000000+000000000+000000000+000000000+000000000+000000000+000000000+000023662+000023681+000000000+000000000+000000000+000000000+000000000+00000000012312011
C00456590AMERICAN STOCK EXCHANGE LISTED COMPANIES SUPER PAC                                        IBQ+000000000+000000000+000000000+000000000+000000000+000000000+000000000+000000000+000000000+000000000+000000000+000000000+000000000+000000000+000000000+000000000+000000000+000000000+000000000+000000000+00000000012312011
C00457499AT&T COMPANY SHAREHOLDERS SUPER PAC                                                       IBQ+000000000+000000000+000000000+000000000+000000000+000000000+000000000+000000000+000000000+000000000+000000000+000000000+000000000+000000000+000000000+000000000+000000000+000000000+000000000+000000000+00000000012312011
C00456434BANK OF AMERICA SHAREHOLDERS SUPER PAC                                                    IBQ+000000000+000000000+000000000+000000000+000000000+000000000+000000000+000000000+000000000+000000000+000000000+000000000+000000000+000000000+000000000+000000000+000000000+000000000+000000000+000000000+00000000012312011
C00457515BUSINESS ROUNDTABLE CORPORATE CHIEF EXECUTIVE OFFICERS SUPER PAC                          IBQ+000000000+000000000+000000000+000000000+000000000+000000000+000000000+000000000+000000000+000000000+000000000+000000000+000000000+000000000+000000000+000000000+000000000+000000000+000000000+000000000+00000000012312011
C00456376CHASE BANK SHAREHOLDERS SUPER PAC                                                         IBQ+000000000+000000000+000000000+000000000+000000000+000000000+000000000+000000000+000000000+000000000+000000000+000000000+000000000+000000000+000000000+000000000+000000000+000000000+000000000+000000000+00000000012312011
C00456095CITIBANK SHAREHOLDERS SUPER PAC                                                           IBQ+000000000+000000000+000000000+000000000+000000000+000000000+000000000+000000000+000000000+000000000+000000000+000000000+000000000+000000000+000000000+000000000+000000000+000000000+000000000+000000000+00000000012312011
C00509505CITIZENS FIRED UP SUPER PAC                                                               IBQ+000000000+000000000+000000000+000000000+000000000+000000000+000000000+000000000+000000000+000000000+000000000+000000000+000000000+000000000+000000000+000000000+000000000+000000000+000000000+000000000+00000000000000000
C00488486COMMUNICATIONS WORKERS OF AMERICA WORKING VOICES                                          IBQ+000920971+000000000+000902971+000000000+000000000+000000000+000000000+000897326+000000000+000000000+000000000+000000000+000000000+000002365+000026010+000000000+000000000+000025000+000107000+000000000+00000000012312011
C00510719DAMIAN C PALMER AND JACK C PILGRIM FOR A BETTER AMERICA SUPER PAC                         IBQ+000000000+000000000+000000000+000000000+000000000+000000000+000000000+000000000+000000000+000000000+000000000+000000000+000000000+000000000+000000000+000000000+000000000+000000000+000000000+000000000+00000000000000000
C00456178DEMOCRATIC CONGRESSIONAL / SENATORIAL AND PRESIDENTIAL CAMPAIGNS FUND COMMITTEE           IBQ+000000000+000000000+000000000+000000000+000000000+000000000+000000000+000000000+000000000+000000000+000000000+000000000+000000000+000000000+000000000+000000000+000000000+000000000+000000000+000000000+00000000012312011
C00456392DEMOCRATIC PRESIDENTIAL NOMINEE CAMPAIGN FUND SUPER PAC                                   IBQ+000000000+000000000+000000000+000000000+000000000+000000000+000000000+000000000+000000000+000000000+000000000+000000000+000000000+000000000+000000000+000000000+000000000+000000000+000000000+000000000+00000000012312011
C00457473DOW JONES INDUSTRIAL AVERAGE LISTED COMPANIES SUPER PAC                                   IBQ+000000000+000000000+000000000+000000000+000000000+000000000+000000000+000000000+000000000+000000000+000000000+000000000+000000000+000000000+000000000+000000000+000000000+000000000+000000000+000000000+00000000012312011
C00457523EXXON MOBIL CORPORATION SHAREHOLDERS SUPER PAC                                            IBQ+000000000+000000000+000000000+000000000+000000000+000000000+000000000+000000000+000000000+000000000+000000000+000000000+000000000+000000000+000000000+000000000+000000000+000000000+000000000+000000000+00000000012312011
C00456368FANNIE MAE AFFILIATED MORTGAGE LENDERS SUPER PAC                                          IBQ+000000000+000000000+000000000+000000000+000000000+000000000+000000000+000000000+000000000+000000000+000000000+000000000+000000000+000000000+000000000+000000000+000000000+000000000+000000000+000000000+00000000012312011
C00456442FEDERAL RESERVE BANK EMPLOYEES SUPER PAC                                                  IBQ+000000000+000000000+000000000+000000000+000000000+000000000+000000000+000000000+000000000+000000000+000000000+000000000+000000000+000000000+000000000+000000000+000000000+000000000+000000000+000000000+00000000012312011
C00457531FIDELITY INVESTMENTS INVESTORS SUPER PAC                                                  IBQ+000000000+000000000+000000000+000000000+000000000+000000000+000000000+000000000+000000000+000000000+000000000+000000000+000000000+000000000+000000000+000000000+000000000+000000000+000000000+000000000+00000000012312011
C00456616FINANCIAL SERVICES ROUNDTABLE CORPORATE CHIEF EXECUTIVE OFFICERS SUPER PAC                IBQ+000000000+000000000+000000000+000000000+000000000+000000000+000000000+000000000+000000000+000000000+000000000+000000000+000000000+000000000+000000000+000000000+000000000+000000000+000000000+000000000+00000000012312011
C00457457FINRA REGULATED SECURITIES BROKERAGE FIRMS SUPER PAC                                      IBQ+000000000+000000000+000000000+000000000+000000000+000000000+000000000+000000000+000000000+000000000+000000000+000000000+000000000+000000000+000000000+000000000+000000000+000000000+000000000+000000000+00000000012312011
C00456087FREDDIE MAC AFFILIATED MORTGAGE LENDERS SUPER PAC                                         IBQ+000000000+000000000+000000000+000000000+000000000+000000000+000000000+000000000+000000000+000000000+000000000+000000000+000000000+000000000+000000000+000000000+000000000+000000000+000000000+000000000+00000000012312011
C00456210GOLDMAN SACHS GROUP INVESTORS SUPER PAC                                                   IBQ+000000000+000000000+000000000+000000000+000000000+000000000+000000000+000000000+000000000+000000000+000000000+000000000+000000000+000000000+000000000+000000000+000000000+000000000+000000000+000000000+00000000012312011
C00456517K STREET LOBBYING FIRMS SUPER PAC                                                         IBQ+000000000+000000000+000000000+000000000+000000000+000000000+000000000+000000000+000000000+000000000+000000000+000000000+000000000+000000000+000000000+000000000+000000000+000000000+000000000+000000000+00000000012312011
C00499525KEEP CONSERVATIVES UNITED                                                                 IBQ+000013162+000000000+000006662+000000000+000000000+000000000+000000000+000013015+000000000+000000000+000000000+000000000+000000000+000000000+000000148+000006500+000000000+000000000+000006144+000000000+00000000012312011
C00486845LEAGUE OF CONSERVATION VOTERS VICTORY FUND                                                IBM+000147567+000000000+000147567+000000000+000000000+000000000+000000000+000011055+000000000+000001000+000000000+000000000+000000000+000126009+000262521+000000000+000000000+000000000+000000000+000000000+00000000001312012
C00456343MICROSOFT CORPORATION SHAREHOLDERS SUPER PAC                                              IBQ+000000000+000000000+000000000+000000000+000000000+000000000+000000000+000000000+000000000+000000000+000000000+000000000+000000000+000000000+000000000+000000000+000000000+000000000+000000000+000000000+00000000012312011
C00456012NASDAQ LISTED COMPANIES SUPER PAC                                                         IBQ+000000000+000000000+000000000+000000000+000000000+000000000+000000000+000000000+000000000+000000000+000000000+000000000+000000000+000000000+000000000+000000000+000000000+000000000+000000000+000000000+00000000012312011
C00488742NATIONAL ASSOCIATION OF REALTORS CONGRESSIONAL FUND                                       IBM+000000686+000000000+000000686+000000000+000000000+000000000+000000000+000000686+000000000+000000000+000000000+000000000+000000000+000002734+000002734+000000000+000000000+000000000+000000000+000000000+00000000001312012
C00490375NATIONAL NURSES UNITED FOR PATIENT PROTECTION                                             IBQ+000000000+000000000+000000000+000000000+000000000+000000000+000000000+000000000+000000000+000000000+000000000+000000000+000000000+000007255+000007255+000000000+000000000+000000000+000000000+000000000+00000000012312011
C00456384NCUA CHARTERED FEDERAL CREDIT UNIONS SUPER PAC                                            IBQ+000000000+000000000+000000000+000000000+000000000+000000000+000000000+000000000+000000000+000000000+000000000+000000000+000000000+000000000+000000000+000000000+000000000+000000000+000000000+000000000+00000000012312011
C00489815NEA ADVOCACY FUND                                                                         IBQ+000510952+000000000+000479151+000000000+000000000+000000000+000000000+000080771+000000000+000000000+000000000+000000000+000000000+000000000+000430181+000000000+000000000+000000000+000000000+000000000+00000000012312011
C00457481NEW YORK STOCK EXCHANGE LISTED COMPANIES SUPER PAC                                        IBQ+000000000+000000000+000000000+000000000+000000000+000000000+000000000+000000000+000000000+000000000+000000000+000000000+000000000+000000000+000000000+000000000+000000000+000000000+000000000+000000000+00000000012312011
C00456624OCC CHARTERED BANKS SUPER PAC                                                             IBQ+000000000+000000000+000000000+000000000+000000000+000000000+000000000+000000000+000000000+000000000+000000000+000000000+000000000+000000000+000000000+000000000+000000000+000000000+000000000+000000000+00000000012312011
C00507657OCCUPYPOLITICS PAC INC                                                                    IBQ+000000000+000000000+000000000+000000000+000000000+000000000+000000000+000000000+000000000+000000000+000000000+000000000+000000000+000000000+000000000+000000000+000000000+000000000+000000000+000000000+00000000000000000
C00456160OTC TRADED COMPANIES SUPER PAC                                                            IBQ+000000000+000000000+000000000+000000000+000000000+000000000+000000000+000000000+000000000+000000000+000000000+000000000+000000000+000000000+000000000+000000000+000000000+000000000+000000000+000000000+00000000012312011
C00495861PRIORITIES USA ACTION                                                                     IBM+004400616+000000000+003135381+001050000+000000000+000000000+000000000+002882794+000000000+000000000+000000000+000000000+000000000+000000000+001517821+000000000+000000000+000000000+000306229+000000000+00000000012312011
C00509463PROTECTING OUR VOTE PAC                                                                   IBQ+000000000+000000000+000000000+000000000+000000000+000000000+000000000+000000000+000000000+000000000+000000000+000000000+000000000+000000000+000000000+000000000+000000000+000000000+000000000+000000000+00000000000000000
C00456236REGIONS BANK SHAREHOLDERS SUPER PAC                                                       IBQ+000000000+000000000+000000000+000000000+000000000+000000000+000000000+000000000+000000000+000000000+000000000+000000000+000000000+000000000+000000000+000000000+000000000+000000000+000000000+000000000+00000000012312011
C00456061REPUBLICAN CONGRESSIONAL / SENATORIAL AND PRESIDENTIAL CAMPAIGNS FUND COMMITTEE           IBQ+000000000+000000000+000000000+000000000+000000000+000000000+000000000+000000000+000000000+000000000+000000000+000000000+000000000+000000000+000000000+000000000+000000000+000000000+000000000+000000000+00000000012312011
C00456152REPUBLICAN PRESIDENTIAL NOMINEE CAMPAIGN FUND SUPER PAC                                   IBQ+000000000+000000000+000000000+000000000+000000000+000000000+000000000+000000000+000000000+000000000+000000000+000000000+000000000+000000000+000000000+000000000+000000000+000000000+000000000+000000000+00000000012312011
C00490045RESTORE OUR FUTURE, INC.                                                                  IBM+030179653+000000000+030175653+000004000+000000000+000000000+000000000+006557543+000000000+000000000+000000000+000000000+000000000+000000000+023622110+000000000+000000000+000000000+004116274+000000000+00000000012312011
